:100000000C9444000C9461000C9461000C94610009
:100010000C9461000C9461000C9461000C946100DC
:100020000C9461000C9461000C9461000C946100CC
:100030000C9461000C9461000C9461000C946100BC
:100040000C9461000C9461000C9461000C946100AC
:100050000C9461000C9461000C9461000C9461009C
:100060000C9461000C9461000C9461000C9461008C
:100070000C9461000C9461000C9461006364696EDF
:100080006F70737578585B0011241FBECFEFD0E1FD
:10009000DEBFCDBF14E0A0E0B1E0E4E2F4E202C0D4
:1000A00005900D92AC3BB107D9F72AE0ACEBB4E078
:1000B00001C01D92A336B207E1F70E942C090C94EF
:1000C00010120C940000CF93C82F8A3019F48DE0E1
:1000D0000E9463008091C00085FFFCCFC093C600E2
:1000E0008C2FCC0F990BCF9108958091C00087FF82
:1000F000FCCF8091C60090E00895282FFC0180E09D
:100100009E2F921B961718F491918927F9CF089585
:100110003F924F925F926F927F928F929F92AF9297
:10012000BF92CF92DF92EF92FF920F931F93CF93E4
:10013000DF9300D0CDB7DEB78C01F62E4DB65EB69C
:10014000C62ED12CB6010D2C000C880B990B0E94E9
:1001500093092AE939E949E95FE30E94F7090E9416
:1001600062098DB79EB7861B91090FB6F8949EBFA2
:100170000FBE8DBFEDB7FEB73196FA83E983302FFE
:10018000D801CF012A2F231B2F1530F42C91FC010D
:100190002193CF011D92F6CF40E050E0912CE12C4D
:1001A000A1E0B0E03601F1E06F1A7108342E4F156E
:1001B00008F062C0E981FA816191FA83E98387E0FE
:1001C00090E0062E000C770B9D01082E02C0220F36
:1001D000331F0A94E2F726233723082E02C03595F1
:1001E00027950A94E2F7822E211122C09394F6E01B
:1001F0009F121FC03320E9F046155705D1F02E2D70
:100200002695269526956801C20ED11C2E2D30E02C
:100210002095309527703327FD0102C0EE0FFF1F98
:100220002A95E2F79F01F6013081232B2083E39486
:10023000912C2E2D2695269526956801C20ED11C4F
:10024000AA24A394B12C811002C0A12CB12C2E2D74
:1002500030E0209530952770332701C0AA0C2A95ED
:10026000EAF7F6012081A22AA082E394019708F020
:10027000ABCF4F5F5F4F9ACF0FB6F8945EBE0FBE05
:100280004DBE0F900F90DF91CF911F910F91FF9076
:10029000EF90DF90CF90BF90AF909F908F907F9026
:1002A0006F905F904F903F9008954F925F926F9242
:1002B0007F928F929F92AF92BF92CF92DF92EF92F6
:1002C000FF920F931F93CF93DF93CDB7DEB7CDB6D9
:1002D000DEB62DB73EB7261B31090FB6F8943EBFE8
:1002E0000FBE2DBF2F5F3F4F622E582FFC01D9014B
:1002F0004E2F451B461720F440814D931192F8CFA5
:10030000290170E0AA24A394B12C242D26192617C4
:10031000C0F5D2010D912D01E7E0F0E027E0722E4B
:10032000770E10E0472D4E1B242F269526952695F7
:100330007C01E20EF11C45010E2E02C0880C991CB6
:100340000A94E2F7802291220E2E02C0959487949F
:100350000A94E2F721E030E0811002C020E030E0B2
:1003600050E0409550954770552701C0220F4A959F
:10037000EAF7D7013C91232B2C93319798F6785FBD
:10038000C4CF0FB6F894DEBE0FBECDBEDF91CF91C5
:100390001F910F91FF90EF90DF90CF90BF90AF90A3
:1003A0009F908F907F906F905F904F900895CF9324
:1003B000DF93CDB7DEB72B970FB6F894DEBF0FBE35
:1003C000CDBF91E8998320E22A8340E1849F900188
:1003D00011242B831E82998769E0CE0101960E9429
:1003E0007D008F8369E0CE0101960E94880080E045
:1003F000E1E0F0E0EC0FFD1FE80FF11D9081992383
:1004000011F08F5FF5CF2B960FB6F894DEBF0FBEBD
:10041000CDBFDF91CF9108956630710561F49F9350
:100420008F938FE291E09F938F930E94DC0B0F904C
:100430000F900F900F9080E090E00895DF92EF9280
:10044000FF920F931F93CF93DF93EC011881EC8001
:100450000E2C000CFF0861E070E0C7010E948C0ABE
:10046000082FD92EDE011596282F392FF901CF013B
:10047000821B930B8E159F051CF48D918193F7CFF2
:10048000DF920F9383E291E09F938F930E94DC0BA6
:100490000F900F900F900F90812F807CB9F0107FFC
:1004A0001036A1F49091C0048981981779F0DF92F9
:1004B0000F938FE291E09F938F930E94DC0B8981D1
:1004C0008093C0040F900F900F900F9080E090E009
:1004D000DF91CF911F910F91FF90EF90DF900895E2
:1004E0008091C000082E000C990B892F881F882747
:1004F000881F90E008951F93CF93DF93FC019F0125
:10050000281B390B26173707ACF44191042E000C39
:10051000550B20E030E0EA01022E02C0D595C795C8
:100520000A94E2F7C0FD11962F5F3F4F2830310546
:1005300091F7E5CFCD0181709927DF91CF911F9180
:1005400008951092C5008DE48093C40088E18093E3
:10055000C10086E08093C200EDE5FAE08EE091E014
:10056000938382839583848380E091E09183808369
:10057000089581E897E090931808809317080895EC
:1005800087FF02C083E0089581E00895982F8032AC
:1005900018F0905283E001C081E0903108F08F5F45
:1005A0000895982F82FF02C083E001C081E091FD91
:1005B0008F5F0895FC0170E06C5F7F4F2E2F281B2A
:1005C00030E06217730724F09191490F511DF6CF67
:1005D000842F0895EF92FF921F93CF93DF93CDB7AF
:1005E000DEB728970FB6F894DEBF0FBECDBFFE0171
:1005F000319628E0DF011D922A95E9F7182F7C013A
:1006000070E06C5F7F4F8E2D811B90E0681779073B
:10061000C4F0D7015D917D019F0190E040E081E051
:10062000491719F0880F4F5FFBCF852321F0D901BF
:100630008C918F5F8C939F5F2F5F3F4F983071F746
:10064000E2CF20E030E080E041E050E0919190FF87
:1006500007C0BA01022E01C0660F0A94EAF7860F9E
:100660002F5F3F4F2830310589F728960FB6F89451
:10067000DEBF0FBECDBFDF91CF911F91FF90EF90F6
:100680000895CF93DF93482FE82FF92F80E090E073
:10069000C0E0D0E070E06C5F7F4F2E2F241B30E075
:1006A0006217730734F02191C20FD11D8C0F9D1F6B
:1006B000F4CF2FEF30E0B9010E944E09FC01CE01CA
:1006C000B9010E944E09A901481B590B2E1B3F0B73
:1006D000922F8827840F951FDF91CF910895089559
:1006E000892F0895CF93DF93FC01208130E0322FD2
:1006F00022274181240F311D0296FC0170E06E5FBC
:100700007F4F4E2F481B50E064177507ACF0C19126
:1007100047E050E0D0E0220F331FDE01042E02C07C
:10072000B595A7950A94E2F7A170BB272A2B3B2B1E
:100730004150510980F7E5CF80E090E0932F820F80
:10074000911DDF91CF910895FB012E2F261B2417B9
:1007500028F4DC012D91CD012193F7CF0895EF927C
:10076000FF920F931F93CF93DF93EC0184E391E00B
:100770000E94F90BE8800A81FB801C818E2D0E946B
:10078000C002813029F01F928F9387E491E06EC000
:1007900082E791E00E94F90B8E2D0E94D1028130F8
:1007A00091F4612FCE010E94DA02412F50E09A01AC
:1007B0002A5F3F4FC20FD31F9881981709F445C095
:1007C0008EE891E03EC0823089F4612FCE010E9414
:1007D000EA02412F50E09A012A5F3F4FC20FD31F18
:1007E0009881981791F180EC91E02BC0833061F4EF
:1007F000612FCE010E9472032E8530E02817390741
:1008000039F189EF91E01DC0843011F5612FCE01DF
:100810000E944103412F50E09A012B5F3F4FC20FCE
:10082000D31F288130E0322F22276981260F311D06
:100830008217930721F4C41BD50B259709C086E2C4
:1008400092E00E94F90B8EEF46C0C41BD50B269791
:1008500021E0F21204C0DE011596FE0110C03FEF48
:10086000F316C9F31F92FF9283E692E09F938F9352
:100870000E94DC0B0F900F900F900F902BC08E2FCB
:100880008C1B811718F48D918193F9CF812F90E003
:10089000C80FD91F9E01295F3F4F1992C217D30776
:1008A000E1F760911708709118089E01281B390B19
:1008B000C90146E907970E94A40380911708909107
:1008C00018080E94F90B602F809117089091180862
:1008D0000E941E0280E0DF91CF911F910F91FF9047
:1008E000EF900895AF92BF92CF92DF92EF92FF9276
:1008F0000F931F93CF93DF93EC01D62E87E792E0FF
:100900000E94F90B8E017E01CC2E2AE8A22E22E055
:10091000B22E8E2D8C1B8D1570F4F70181917F0105
:100920001F928F93BF92AF920E94DC0B0F900F909B
:100930000F900F90EECF8AE090E00E94F20B8EE8CD
:1009400092E00E94F90B9AE8E92E92E0F92E802FAE
:100950008C198D1570F4F80181918F011F928F937E
:10096000FF92EF920E94DC0B0F900F900F900F9070
:10097000EECF8AE090E00E94F20B89811F928F9364
:1009800088EA92E09F938F930E94DC0B89810F90FD
:100990000F900F900F9086FF09C082EB92E00E94AB
:1009A000F90B8A8182958F708093BE0489811F9292
:1009B0008F938FEB92E09F938F930E94DC0B898142
:1009C0000F900F900F900F9085FF04C08CEC92E079
:1009D0000E94F90B89811F928F938FEB92E09F9376
:1009E0008F930E94DC0B0F900F900F900F908981D6
:1009F00087FFA9C08AED92E00E94F90B80911C014B
:100A00008823C1F088EE92E00E94F90B89818F70F3
:100A10001F928F9385EF92E09F938F930E94DC0B40
:100A200010921C0189818F708093BC040F900F90ED
:100A30000F900F909091BC048981981B9F7080E06B
:100A40002D81821760F4FE01E80FF11D2681E82F49
:100A5000E90FF0E0EF53FB4F20838F5FF1CF8AE087
:100A600093E00E94F90B89818F701F928F9381E22E
:100A700093E09F938F930E94DC0B8091BC041F92A4
:100A80008F9382E393E09F938F930E94DC0B898185
:100A90008F7091E02091BC04281390E01F929F93E7
:100AA00081E493E09F938F930E94DC0B89818F7088
:100AB0002DB73EB7245F3F4F0FB6F8943EBF0FBE31
:100AC0002DBF9091BC0498133EC08FE493E00E9428
:100AD000F90B8091BC048150CD8137E1839FC00D1B
:100AE000112483E693E00E94F90B01EC14E07801F5
:100AF000D02F81E8C82E83E0D82E8E2D801B8C1736
:100B000070F4F70181917F011F928F93DF92CF9252
:100B10000E94DC0B0F900F900F900F90EECF8AE0A9
:100B200090E00E94F20B6C2F81EC94E00E94AF03E6
:100B3000802F8D1B8C1720F4F80111928F01F8CFB4
:100B400081E080931C0184E893E00E94F90B80E02F
:100B5000DF91CF911F910F91FF90EF90DF90CF9099
:100B6000BF90AF9008952F923F924F925F926F92F5
:100B70007F928F929F92AF92BF92CF92DF92EF922D
:100B8000FF920F931F93CF93DF93CDB7DEB7E0971C
:100B90000FB6F894DEBF0FBECDBF4C01062F2DB7A8
:100BA0003EB73EA72DA786E993E00E94F90B182DCA
:100BB00074019AE8C92E92E0D92E8E2D811B8017E0
:100BC00070F4D7018D917D011F928F93DF92CF92A8
:100BD0000E94DC0B0F900F900F900F90EECF8AE0E9
:100BE00090E00E94F20B802F67E10E9442098BA7E0
:100BF000182F1F5FA12EB12C1F921F9388EA93E03C
:100C00009F938F930E94DC0B0F900F900F900F908B
:100C1000EDB7FEB724E2129FE019F10911240FB6D7
:100C2000F894FEBF0FBEEDBF8DB79EB701967C0155
:100C30003C019C0144E280E090E0F901E80FF91FDB
:100C4000108201968117C8F341502A0D3B1D4111B6
:100C5000F2CFADB7BEB7AA19BB090FB6F894BEBFA5
:100C60000FBEADBF2DB73EB72F5F3F4F3EA32DA3A5
:100C7000802F67E10E9442099CA73DA13FA721E484
:100C800035E03AA729A727013DA13FA38EA188A758
:100C9000212C312CC12CD12C91E899838BA58C1956
:100CA0008F7080688A838091BD048F708B831F92C0
:100CB0008F93A4EBB3E0BF93AF93C8AA0E94DC0B61
:100CC0000F900F900F900F9028A9211303C02CA50F
:100CD0002E8302C037E13E8320E08E81281788F4FE
:100CE000822F90E0A7E0B0E0AC0FBD1FA80FB91FA6
:100CF000880D991DFC01E20DF31D80818C932F5FFF
:100D0000ECCFE9E0F0E0EC0FFD1FE80FF11D81E80A
:100D100080832E8169E0620FCE01019628AB0E948C
:100D20007D0028A9E7E0F0E0EC0FFD1FE20FF11DC8
:100D300080838BEC93E00E94F90B20E0422F50E07F
:100D40008E8190E0089684179507BCF0E1E0F0E012
:100D5000EC0FFD1FE40FF51F80811F928F93AAE80F
:100D6000B2E0BF93AF9328AB0E94DC0B28A92F5FA2
:100D70000F900F900F900F90E1CF8AE090E00E94CB
:100D8000F20B80E0E1E0F0E0EC0FFD1FE80FF11D59
:100D90009081992311F08F5FF5CF2E81275FA601F7
:100DA000AFA1B8A52D93B8A7AFA3FE01319680E0FF
:100DB00090E0821760F43191A9A5BAA5A80FB91FD8
:100DC0003C93D201A80FB91F3C930196F2CF8091BA
:100DD000BD048F5F8093BD045F934F93AFEDB3E08D
:100DE000BF93AF930E94DC0BFFEFCF1ADF0A29A558
:100DF0003AA5205F3F4F3AA729A74A0C5B1C37E171
:100E0000230E311C0F900F900F900F90C11608F415
:100E100043CF1F920F9380EF93E09F938F930E9495
:100E2000DC0B1F9287E18F9383E094E09F938F9375
:100E30000E94DC0B1F921F938AE194E09F938F9393
:100E40000E94DC0B8DB79EB70C960FB6F8949EBF30
:100E50000FBE8DBFC12CD12C8AE8882E82E0982E3F
:100E6000212C312C4DA05EA04C0C5D1CD2018C912C
:100E700090E02816390694F4F701E20DF31D808105
:100E80001F928F939F928F920E94DC0B9FEF291AE3
:100E9000390A0F900F900F900F90E8CF8AE090E002
:100EA0000E94F20BBFEFCB1ADB0AEA0CFB1CCA1440
:100EB000DB04B4F2EDA0FEA0F70161917F01C30154
:100EC0000E9472046A0C7B1C8E2D2FA5821B811739
:100ED00098F31F921F9388E294E09F938F930E9450
:100EE000DC0B0F900F900F900F9081E02DA53EA589
:100EF0000FB6F8943EBF0FBE2DBFE0960FB6F89424
:100F0000DEBF0FBECDBFDF91CF911F910F91FF903C
:100F1000EF90DF90CF90BF90AF909F908F907F9099
:100F20006F905F904F903F902F900895EF92FF92B7
:100F30001F93CF93DF93EC018AE394E00E94F90BB7
:100F40001C8167E0610FE62EF12CFE01EE0DFF1D06
:100F5000DF01169680E090E0E816F9062CF020817B
:100F60002E9331970196F8CF65838FEF848381E0CC
:100F700083831282EF01219686E08183CE010E9455
:100F8000410397012B5F3F4FFE01E20FF31F908358
:100F900081836091170870911808CF018E199F09FD
:100FA00046E905970E94A4036EE0610F809117083F
:100FB000909118080E94B30580E0DF91CF911F91B6
:100FC000FF90EF900895AF92BF92CF92DF92EF9291
:100FD000FF920F931F93CF93DF936C015B017A0114
:100FE000DF928F9389E494E09F938F930E94DC0BB0
:100FF0008701085F1F4F61E070E0C8010E948C0A02
:10100000EC01DC0115960F900F900F900F90F601F8
:10101000CF018C199D098E159F051CF481918D932C
:10102000F7CFA114B10411F41B822AC081E0A816E5
:10103000B10421F082E0A816B10419F4888180611E
:1010400014C083E0A816B10419F4888180630DC030
:1010500084E0A816B10419F48881806406C085E094
:10106000A816B10421F488818065888309C086E0D0
:10107000A816B10429F488818066888380E38B8375
:101080008091BF0489838AEA8A83EC82F601EE0D9F
:10109000FF1D8EE78583B7016A5F7F4FCE010E94F7
:1010A0007B029E01200F311FF9013197892B29F016
:1010B0008FEF80833197808303C010823197108235
:1010C000DF93CF938FE594E09F938F930E94DC0B87
:1010D00060E070E0CE010E949607CE010E943D0BB9
:1010E0000F900F900F900F9080E090E0DF91CF91E4
:1010F0001F910F91FF90EF90DF90CF90BF90AF9036
:1011000008950F931F93CF93DF93CDB7DEB7C85CDD
:10111000D1090FB6F894DEBF0FBECDBF8E010F5FB1
:101120001F4F1F930F9383E794E09F938F930E9429
:10113000290C1F930F9386E794E09F938F930E944F
:10114000DC0BF80101900020E9F73197AF01401B5B
:10115000510B66E070E0C8010E94E3070FB6F894F7
:10116000DEBF0FBECDBFC853DF4F0FB6F894DEBF52
:101170000FBECDBFDF91CF911F910F910895EF92D8
:10118000FF920F931F93CF93DF937C01C0E0D0E0D9
:101190000CE814E0F70181917F011F928F93DF9398
:1011A000CF931F930F930E94DC0B21960F900F900B
:1011B0000F900F900F900F90C639D10559F7DF911E
:1011C000CF911F910F91FF90EF900895CF93DF93F0
:1011D000EC018BE994E00E94F90B60911708709183
:1011E000180846E9CE010E94A40380911708909147
:1011F0001808DF91CF910C94BF080F931F93CF93E2
:10120000DF93C0E0D0E00CE814E0E0911708F09123
:10121000180880811F928F93DF93CF931F930F93B2
:101220000E94DC0B8091170890911808019690930A
:1012300018088093170821960F900F900F900F9029
:101240000F900F90C639D10501F7DF91CF911F9113
:101250000F9108950C94B30583E08093BF040E941E
:10126000A10288EB94E00E94F90B81E897E090934B
:101270001808809317080E947002892BE1F30E94DE
:101280008108F9CF991B79E004C0991F961708F0DF
:10129000961B881F7A95C9F780950895AA1BBB1BDA
:1012A00051E107C0AA1FBB1FA617B70710F0A61B66
:1012B000B70B881F991F5A95A9F780959095BC0187
:1012C000CD0108950E94D60988F09F5798F0B92F54
:1012D0009927B751B0F0E1F0660F771F881F991F6B
:1012E0001AF0BA95C9F714C0B13091F00E94F00914
:1012F000B1E008950C94F009672F782F8827B85F24
:1013000039F0B93FCCF3869577956795B395D9F7C2
:101310003EF490958095709561957F4F8F4F9F4FCC
:101320000895E89409C097FB3EF4909580957095D8
:1013300061957F4F8F4F9F4F9923A9F0F92F96E921
:10134000BB279395F695879577956795B795F11196
:10135000F8CFFAF4BB0F11F460FF1BC06F5F7F4F33
:101360008F4F9F4F16C0882311F096E911C0772345
:1013700021F09EE8872F762F05C0662371F096E84E
:10138000862F70E060E02AF09A95660F771F881F1D
:10139000DAF7880F9695879597F9089557FD905835
:1013A000440F551F59F05F3F71F04795880F97FB29
:1013B000991F61F09F3F79F08795089512161306E3
:1013C0001406551FF2CF4695F1DF08C01616170612
:1013D0001806991FF1CF8695710561050894089547
:1013E000E894BB2766277727CB0197F908950E94D9
:1013F0000A0A0C947B0A0E946D0A38F00E94740A53
:1014000020F0952311F00C94640A0C946A0A1124BC
:101410000C94F1090E94CE0970F3959FC1F3950FCA
:1014200050E0551F629FF001729FBB27F00DB11D68
:10143000639FAA27F00DB11DAA1F649F6627B00DF8
:10144000A11D661F829F2227B00DA11D621F739FE1
:10145000B00DA11D621F839FA00D611D221F749FEF
:101460003327A00D611D231F849F600D211D822F36
:10147000762F6A2F11249F5750409AF0F1F088235D
:101480004AF0EE0FFF1FBB1F661F771F881F91508A
:101490005040A9F79E3F510580F00C94640A0C94CB
:1014A000F1095F3FE4F3983ED4F38695779567950D
:1014B000B795F795E7959F5FC1F7FE2B880F911DB4
:1014C0009695879597F9089597F99F6780E870E05A
:1014D00060E008959FEF80EC089500240A941616AA
:1014E000170618060906089500240A941216130612
:1014F000140605060895092E0394000C11F48823A0
:1015000052F0BB0F40F4BF2B11F460FF04C06F5FBB
:101510007F4F8F4F9F4F08950F931F93CF93DF936C
:10152000869F8001879F100D969F100D1124C80182
:101530000E94A80AEC01009729F0A80160E070E081
:101540000E94D50BCE01DF91CF911F910F9108958D
:10155000CF93DF938230910510F482E090E0E09128
:101560005B0AF0915C0A20E030E0C0E0D0E0309708
:1015700011F14081518148175907C0F048175907A8
:1015800061F482819381209719F09B838A832BC019
:1015900090935C0A80935B0A26C02115310519F0EF
:1015A0004217530718F49A01BE01DF01EF010280D0
:1015B000F381E02DDCCF2115310509F1281B390B12
:1015C0002430310590F412968D919C9113976115FA
:1015D000710521F0FB019383828304C090935C0A20
:1015E00080935B0AFD01329644C0FD01E20FF31FB8
:1015F00081939193225031092D933C933AC02091CD
:10160000590A30915A0A232B41F420911F0130913D
:10161000200130935A0A2093590A20911D013091DC
:101620001E012115310541F42DB73EB7409121012E
:1016300050912201241B350BE091590AF0915A0A6E
:10164000E217F307A0F42E1B3F0B2817390778F099
:10165000AC014E5F5F4F2417350748F04E0F5F1FF8
:1016600050935A0A4093590A8193919302C0E0E043
:10167000F0E0CF01DF91CF9108950F931F93CF93A7
:10168000DF93009709F48CC0FC0132971382128219
:1016900000915B0A10915C0A0115110581F420810B
:1016A0003181820F931F2091590A30915A0A2817CD
:1016B000390779F5F0935A0AE093590A71C0D801B5
:1016C00040E050E0AE17BF0750F412962D913C91C8
:1016D0001397AD012115310509F1D901F3CF9D0112
:1016E000DA013383228360817181860F971F82170D
:1016F000930769F4EC0128813981260F371F2E5F8B
:101700003F4F318320838A819B8193838283452B42
:1017100029F4F0935C0AE0935B0A42C01396FC93B1
:10172000EE931297ED01499159919E01240F351FB7
:10173000E217F30771F480819181840F951F02965F
:1017400011969C938E938281938113969C938E9392
:101750001297E0E0F0E0D80112968D919C911397DA
:10176000009719F0F8018C01F6CF8D919C919801AA
:101770002E5F3F4F820F931F2091590A30915A0AD2
:101780002817390769F4309729F410925C0A1092EF
:101790005B0A02C01382128210935A0A0093590AFC
:1017A000DF91CF911F910F910895DC0101C06D93DE
:1017B00041505040E0F70895A0E0B0E0E2EEFBE0D9
:1017C0000C94E911AE014B5F5F4FFA016191719189
:1017D000AF0180915F0A9091600A0E943F0CE2E0A5
:1017E0000C94051260915F0A7091600A0E942711A3
:1017F00008950F931F93CF93DF93E0915F0AF091C9
:10180000600A238121FF1BC08C01D0E0C0E0F801F9
:1018100081918F0160915F0A7091600ADB011896D7
:10182000ED91FC911997882331F00995892B79F373
:10183000DFEFCFEFECCF8AE00995892B19F08FEF1E
:101840009FEF02C08D2F9C2FDF91CF911F910F91A1
:101850000895A0E0B0E0EFE2FCE00C94E911AE01E5
:101860004B5F5F4FFA0161917191AF0180915D0A09
:1018700090915E0A0E94910FE2E00C940512ACE098
:10188000B0E0E5E4FCE00C94D9117C016B018A0125
:10189000FC0117821682838181FFBDC1CE010196B2
:1018A0004C01F7019381F60193FD859193FF81919E
:1018B0006F01882309F4ABC1853239F493FD85911A
:1018C00093FF81916F01853229F4B70190E00E9466
:1018D0002711E7CF512C312C20E02032A0F48B329D
:1018E00069F030F4803259F0833269F420612CC001
:1018F0008D3239F0803339F4216026C022602460B3
:1019000023C0286021C027FD27C030ED380F3A30B2
:1019100078F426FF06C0FAE05F9E300D1124532EA6
:1019200013C08AE0389E300D1124332E20620CC083
:101930008E3221F426FD6BC1206406C08C3611F472
:10194000206802C0883641F4F60193FD859193FF2B
:1019500081916F018111C1CF982F9F7D9554933054
:1019600028F40C5F1F4FFFE3F9830DC0833631F07D
:10197000833771F0833509F05BC022C0F8018081A4
:1019800089830E5F1F4F44244394512C540115C08A
:101990003801F2E06F0E711CF801A080B18026FFC3
:1019A00003C0652D70E002C06FEF7FEFC5012C878B
:1019B0000E94DE102C0183012C852F77222E17C068
:1019C0003801F2E06F0E711CF801A080B18026FF93
:1019D00003C0652D70E002C06FEF7FEFC5012C875B
:1019E0000E94D3102C012C852068222E830123FC19
:1019F0001BC0832D90E048165906B0F4B70180E271
:101A000090E00E9427113A94F4CFF50127FC8591CC
:101A100027FE81915F01B70190E00E9427113110EC
:101A20003A94F1E04F1A51084114510471F7E5C09E
:101A3000843611F0893639F5F80127FF07C0608137
:101A40007181828193810C5F1F4F08C06081718119
:101A5000072E000C880B990B0E5F1F4F2F76722EEE
:101A600097FF09C090958095709561957F4F8F4F36
:101A70009F4F2068722E2AE030E0A4010E94781166
:101A8000A82EA81844C0853729F42F7EB22E2AE04C
:101A900030E025C0F22FF97FBF2E8F36C1F018F449
:101AA000883579F0B4C0803719F0883721F0AFC09D
:101AB0002F2F2061B22EB4FE0DC08B2D8460B82E66
:101AC00009C024FF0AC09F2F9660B92E06C028E0E7
:101AD00030E005C020E130E002C020E132E0F80152
:101AE000B7FE07C060817181828193810C5F1F4FB7
:101AF00006C06081718180E090E00E5F1F4FA401FD
:101B00000E947811A82EA818FB2DFF777F2E76FE55
:101B10000BC0372D3E7FA51450F474FE0AC072FC32
:101B200008C0372D3E7E05C0BA2C372D03C0BA2C15
:101B300001C0B52C34FF0DC0FE01EA0DF11D8081FE
:101B4000803311F4397E09C032FF06C0B394B394D8
:101B500004C0832F867809F0B39433FD13C030FF9F
:101B600006C05A2CB31418F4530C5B18B32CB314DE
:101B700068F4B70180E290E03C870E942711B3949B
:101B80003C85F5CFB31410F43B1801C0312C34FF61
:101B900012C0B70180E390E03C870E9427113C858A
:101BA00032FF17C031FD03C088E790E002C088E52E
:101BB00090E0B7010CC0832F867859F031FF02C046
:101BC0008BE201C080E237FD8DE2B70190E00E9418
:101BD0002711A51438F4B70180E390E00E94271183
:101BE0005A94F7CFAA94F401EA0DF11D8081B70150
:101BF00090E00E942711A110F5CF332009F451CEB7
:101C0000B70180E290E00E9427113A94F6CFF701E5
:101C10008681978102C08FEF9FEF2C96E2E10C94B2
:101C2000F51120FD09C0FC0123FD05C022FF02C003
:101C30007383628351834083089544FD10C046FD41
:101C400010C0DB01FC01AA0FBB1FEE1FFF1F109489
:101C5000D1F76A0F7B1F8E1F9F1F31E003C033E057
:101C600001C034E0660F771F881F991F3150D1F7EC
:101C7000620F711D811D911D08950F931F93CF93C6
:101C8000DF938C01C8010E94E910EC0197FD08C0A8
:101C90000E94BF10892BB1F7B801CE010E945F11DD
:101CA000CE01DF91CF911F910F910895A1E0B0E097
:101CB000ECE5FEE00C94DF118C01C62E7A0129833D
:101CC0000E94E910AC01552729814B32510521F0C2
:101CD0004D32510569F42068CA94C11002C080E0F9
:101CE00076C0C80129830E94E910298197FDF7CFAA
:101CF000322F3D7FD32E322F307349F5803339F5A3
:101D0000BB24BA94BC0C09F44EC0C80129830E94BC
:101D1000E910298197FD47C0382F3F7D383569F498
:101D20008D2D8264D82ECA94CA94CC20E1F1C801CA
:101D30000E94E91097FF0BC036C026FF04C02D2D6E
:101D40002260D22E03C03D2D3261D32ECB2C812CAC
:101D5000912C540120ED280F283080F0D4FE04C0CF
:101D6000B8010E945F111CC02A3040F0D6FEF8CFA7
:101D70002F7D3FEE320F363098F727504D2DC5019D
:101D8000B4010E941D0E4B015C018D2D8260D82E86
:101D9000CA94CC2059F0C8010E94E91097FFDACF0D
:101DA000D1FC04C09CCF812C912C5401D7FE08C0DB
:101DB000B094A09490948094811C911CA11CB11C9F
:101DC0002D2DB501A401C7010E94110E81E02196BD
:101DD000ECE00C94FB11A1E2B0E0E1EFFEE00C942A
:101DE000DD115C017A01CE0101966C0180E2F60101
:101DF00011928A95E9F7F501838040E050E0912C3B
:101E0000712C70E0A1E0B0E0F90183FC859183FEC4
:101E100081918F01982F9F01811103C080E090E094
:101E20007CC08E3519F44115510549F1E72FF0E0DA
:101E3000E417F5073CF48D3559F18D3219F477200C
:101E400001F103C0711001C0982E892F86958695E7
:101E500086958601080F111D892F87703D0101C0ED
:101E6000660C8A95EAF7F8018081862980839915A6
:101E700059F0991510F49F5FE8CF9150E6CF71E0CB
:101E800004C07724739401C0712C4F5F5F4FBCCFA7
:101E9000772019F08E8180628E83711103C099249E
:101EA000939416C0F6019E012F5D3F4F808180956F
:101EB0008193E217F307D1F7F2CFE114F10429F08F
:101EC000F7018083C70101967C016150912CF9F0E4
:101ED000C50169A30E94E91069A197FD16C0282FCA
:101EE000269526952695F601E20FF11D208130E01A
:101EF000AC014770552702C0359527954A95E2F702
:101F000020FDDBCFB5010E945F11911087CFE11456
:101F1000F10411F0F7011082C801A196EEE00C94D3
:101F2000F9114F925F927F928F929F92AF92BF92E0
:101F3000CF92DF92EF92FF920F931F93CF93DF9395
:101F40001F92CDB7DEB76C012B015A01FC0117823D
:101F50001682712CF601F380F201F3FC8591F3FEF9
:101F60008191382F2F01882309F4F3C090E0398341
:101F70000E94BF103981892B21F0C6010E943D0EBD
:101F8000E9CF353241F4F201F3FC3591F3FE3191A2
:101F90002F01353269F4C60139830E94E910398175
:101FA00097FDD5C03817B1F2B6010E945F11D1C0BC
:101FB0003A3239F4F3FC3591F3FE31912F0151E0BF
:101FC00001C050E0420110E020ED230F2A3090F4D0
:101FD0005260612F70E080E090E040E259830E94FF
:101FE0001D0E162FF401F3FC3591F3FE31914F01D4
:101FF0005981EACF052F232F240151FF03C011116E
:1020000002C0A7C01FEF383619F03C3659F011C096
:10201000F401F3FC2591F3FE21912F01283649F4B8
:10202000052F08600460F201F3FC2591F3FE219175
:102030002F01222309F48DC0622F70E08CE790E01D
:1020400029830E94C8102981892B09F482C000FDD0
:1020500007C0F501E080F180C50102965C0102C075
:10206000E12CF12C2E3651F4F6014681578160E0C7
:1020700070E0202FC7010E94110E6CCF233691F41F
:1020800001FF11E0C6010E94E91097FD60C0E11454
:10209000F10429F0F7018083C70101967C011150FA
:1020A00089F751C02B3559F49201A701612FC60160
:1020B0000E94EB0E2C01892B09F045C03FC0C601E0
:1020C00029830E943D0E298197FD41C02F3659F189
:1020D00028F4243631F1293649F127C0233769F035
:1020E0002537F9F022C0E114F10429F0F7018082CC
:1020F000C70101967C01115071F0C6010E94E910E0
:102100004C0197FD08C00E94BF10892B61F3B601F6
:10211000C4010E945F11E114F104A9F0F7011082DB
:1021200012C0006203C0006101C00064202FA7013B
:10213000612FC6010E94560E811105C0F6018381F0
:10214000807329F406C000FD05CF739403CF772078
:1021500019F0872D90E002C08FEF9FEF0F90DF9175
:10216000CF911F910F91FF90EF90DF90CF90BF9094
:10217000AF909F908F907F905F904F9008959111B6
:102180000C94D611803219F089508550C8F7089503
:10219000FC010590061621F00020D9F7C001089532
:1021A0003197CF010895FC010590615070400110F6
:1021B000D8F7809590958E0F9F1F0895FC01615070
:1021C000704001900110D8F7809590958E0F9F1F59
:1021D0000895CF93DF93EC012B8120FF33C026FFBE
:1021E0000AC02F7B2B838E819F8101969F838E83D4
:1021F0008A8190E029C022FF0FC0E881F9818081A7
:10220000082E000C990B009719F420622B831AC03A
:102210003196F983E8830EC0EA85FB85099597FF1F
:1022200009C02B81019611F080E201C080E1822B70
:102230008B8308C02E813F812F5F3F4F3F832E83CA
:10224000992702C08FEF9FEFDF91CF9108950F93F1
:102250001F93CF93DF93FB01238121FD03C08FEFF9
:102260009FEF28C022FF16C0468157812481358107
:102270004217530744F4A081B1819D012F5F3F4F66
:10228000318320838C93268137812F5F3F4F3783A3
:10229000268310C0EB01092F182F0084F185E02D53
:1022A0000995892BE1F68E819F8101969F838E830C
:1022B000812F902FDF91CF911F910F910895FB01F6
:1022C000238120FF12C026FD10C08F3F3FEF9307F0
:1022D00061F082832F7D2064238326813781215002
:1022E000310937832683992708958FEF9FEF08954B
:1022F000FA01AA27283051F1203181F1E8946F9337
:102300006E7F6E5F7F4F8F4F9F4FAF4FB1E03ED0DC
:10231000B4E03CD0670F781F891F9A1FA11D680F7A
:10232000791F8A1F911DA11D6A0F711D811D911DAD
:10233000A11D20D009F468943F912AE0269F112422
:102340003019305D3193DEF6CF010895462F477086
:10235000405D4193B3E00FD0C9F7F6CF462F4F70E1
:10236000405D4A3318F0495D31FD4052419302D03F
:10237000A9F7EACFB4E0A6959795879577956795E5
:10238000BA95C9F700976105710508959B01AC01E5
:102390000A2E06945795479537952795BA95C9F70C
:1023A000620F731F841F951FA01D0895992788270A
:1023B00008952F923F924F925F926F927F928F92E9
:1023C0009F92AF92BF92CF92DF92EF92FF920F93C4
:1023D0001F93CF93DF93CDB7DEB7CA1BDB0B0FB6CE
:1023E000F894DEBF0FBECDBF09942A88398848888B
:1023F0005F846E847D848C849B84AA84B984C88421
:10240000DF80EE80FD800C811B81AA81B981CE0F17
:10241000D11D0FB6F894DEBF0FBECDBFED010895FC
:04242000F894FFCF5E
:102424000000000100000000000075000000000032
:1024340000020000000063000000000001000063CF
:102444000A2000544C4C206465636F64653A20256F
:1024540073200A0055702066756E6374696F6E2070
:1024640063616C6C656400496E636F72726563745A
:10247400207665726973696F6E2C20766572736954
:102484006F6E2025752069732064746563746564B8
:102494000A0056657273696F6E203120686173207B
:1024A4006265656E206465746563746564004E6579
:1024B40074776F726B5F75702068617320646574E4
:1024C40065637465642074686520636865636B7311
:1024D400756D20697320696E636F72726563740031
:1024E4004E6574776F726B5F7570206861732064DA
:1024F40065746563746564207468652070617269CD
:10250400747920636865636B73756D2069732069E2
:102514006E636F7272656374004E6574776F726B6D
:102524005F757020686173206465746563746564A5
:10253400207468652043524320697320696E636F79
:102544007272656374004E6574776F726B5F757039
:1025540020686173206465746563746564207468BD
:102564006520666C6574686368657273206368656A
:10257400636B73756D20697320696E636F72726526
:1025840063740020444553542069732077726F6E3E
:10259400673A2025750A0023232320454E544552CB
:1025A400207278444C4C2829200025782000556E50
:1025B4007374756666656420287374756666696EDF
:1025C40067206F6666292000434F4E5448202578C3
:1025D4000A004672616D652069732041434B0043D4
:1025E4004F4E54482069732025780A004672616D65
:1025F40065206973204E41434B004672616D65202E
:1026040069732044617461004461746120697320BA
:102614006E65772E004672616D65436F756E7465E5
:10262400722069732025642E0A004461746120635A
:102634006F7069656420746F206275666665722EBA
:10264400004672616D65636F756E746572202564F2
:102654000A0072784461746153697A652025640ABA
:1026640000727844533D3D46433F2025640A0050A0
:1026740061636B657420697320636F6D706C65743E
:10268400652E005472616E73666572656420696EAE
:10269400746F204E6574776F726B204C617965722C
:1026A40000257800232323204C6561766520727809
:1026B400444C4C28290023232320454E54455220C2
:1026C4007478444C4C2829006E4672616D65732001
:1026D40025640A002A2A2A4672616D65436F756E65
:1026E4007465722069732025640A005072652D7325
:1026F400747566666564204672616D653A200050A3
:1027040061636B6564204672616D652025640A000F
:102714007061636B65744C656E6774682C20256901
:10272400200A004E45545345474D454E544C454EA2
:102734004754482C202569200A006E4672616D6555
:10274400732C202569200A0023232320455849544B
:10275400207478444C4C28290A0054582066756E1D
:10276400632063616C6C656400546C6C2044617418
:10277400612052656369657665642573200A005497
:102784006C6C20646174612073656E743A202573E7
:10279400200A00257300417070205472616E736DBD
:1027A4006974696E673A202573200A00427974655A
:1027B4002025642069732025750A005665727369A3
:1027C4006F6E203120686173206265656E207365C9
:0C27D4006C6563746564200048490000D7
:00000001FF
